{
  "_format": "hh-sol-artifact-1",
  "contractName": "VirtualCardBridge",
  "sourceName": "contracts/VirtualCardBridge.sol",
  "abi": [
    {
      "inputs": [
        {
          "internalType": "address",
          "name": "_sovToken",
          "type": "address"
        }
      ],
      "stateMutability": "nonpayable",
      "type": "constructor"
    },
    {
      "inputs": [],
      "name": "AccessControlBadConfirmation",
      "type": "error"
    },
    {
      "inputs": [
        {
          "internalType": "address",
          "name": "account",
          "type": "address"
        },
        {
          "internalType": "bytes32",
          "name": "neededRole",
          "type": "bytes32"
        }
      ],
      "name": "AccessControlUnauthorizedAccount",
      "type": "error"
    },
    {
      "inputs": [
        {
          "internalType": "address",
          "name": "target",
          "type": "address"
        }
      ],
      "name": "AddressEmptyCode",
      "type": "error"
    },
    {
      "inputs": [
        {
          "internalType": "address",
          "name": "account",
          "type": "address"
        }
      ],
      "name": "AddressInsufficientBalance",
      "type": "error"
    },
    {
      "inputs": [],
      "name": "EnforcedPause",
      "type": "error"
    },
    {
      "inputs": [],
      "name": "ExpectedPause",
      "type": "error"
    },
    {
      "inputs": [],
      "name": "FailedInnerCall",
      "type": "error"
    },
    {
      "inputs": [],
      "name": "ReentrancyGuardReentrantCall",
      "type": "error"
    },
    {
      "inputs": [
        {
          "internalType": "address",
          "name": "token",
          "type": "address"
        }
      ],
      "name": "SafeERC20FailedOperation",
      "type": "error"
    },
    {
      "anonymous": false,
      "inputs": [
        {
          "indexed": true,
          "internalType": "address",
          "name": "user",
          "type": "address"
        },
        {
          "indexed": true,
          "internalType": "bytes32",
          "name": "txHash",
          "type": "bytes32"
        },
        {
          "indexed": false,
          "internalType": "string",
          "name": "cardId",
          "type": "string"
        },
        {
          "indexed": false,
          "internalType": "uint256",
          "name": "timestamp",
          "type": "uint256"
        }
      ],
      "name": "CardGenerated",
      "type": "event"
    },
    {
      "anonymous": false,
      "inputs": [
        {
          "indexed": true,
          "internalType": "address",
          "name": "user",
          "type": "address"
        },
        {
          "indexed": false,
          "internalType": "uint256",
          "name": "amount",
          "type": "uint256"
        },
        {
          "indexed": true,
          "internalType": "bytes32",
          "name": "txHash",
          "type": "bytes32"
        },
        {
          "indexed": false,
          "internalType": "uint256",
          "name": "timestamp",
          "type": "uint256"
        },
        {
          "indexed": false,
          "internalType": "uint256",
          "name": "nonce",
          "type": "uint256"
        },
        {
          "indexed": false,
          "internalType": "string",
          "name": "currency",
          "type": "string"
        }
      ],
      "name": "CardGenerationRequest",
      "type": "event"
    },
    {
      "anonymous": false,
      "inputs": [
        {
          "indexed": true,
          "internalType": "address",
          "name": "to",
          "type": "address"
        },
        {
          "indexed": false,
          "internalType": "uint256",
          "name": "amount",
          "type": "uint256"
        }
      ],
      "name": "FundsWithdrawn",
      "type": "event"
    },
    {
      "anonymous": false,
      "inputs": [
        {
          "indexed": false,
          "internalType": "uint256",
          "name": "oldAmount",
          "type": "uint256"
        },
        {
          "indexed": false,
          "internalType": "uint256",
          "name": "newAmount",
          "type": "uint256"
        }
      ],
      "name": "MinimumAmountUpdated",
      "type": "event"
    },
    {
      "anonymous": false,
      "inputs": [
        {
          "indexed": false,
          "internalType": "address",
          "name": "account",
          "type": "address"
        }
      ],
      "name": "Paused",
      "type": "event"
    },
    {
      "anonymous": false,
      "inputs": [
        {
          "indexed": true,
          "internalType": "bytes32",
          "name": "role",
          "type": "bytes32"
        },
        {
          "indexed": true,
          "internalType": "bytes32",
          "name": "previousAdminRole",
          "type": "bytes32"
        },
        {
          "indexed": true,
          "internalType": "bytes32",
          "name": "newAdminRole",
          "type": "bytes32"
        }
      ],
      "name": "RoleAdminChanged",
      "type": "event"
    },
    {
      "anonymous": false,
      "inputs": [
        {
          "indexed": true,
          "internalType": "bytes32",
          "name": "role",
          "type": "bytes32"
        },
        {
          "indexed": true,
          "internalType": "address",
          "name": "account",
          "type": "address"
        },
        {
          "indexed": true,
          "internalType": "address",
          "name": "sender",
          "type": "address"
        }
      ],
      "name": "RoleGranted",
      "type": "event"
    },
    {
      "anonymous": false,
      "inputs": [
        {
          "indexed": true,
          "internalType": "bytes32",
          "name": "role",
          "type": "bytes32"
        },
        {
          "indexed": true,
          "internalType": "address",
          "name": "account",
          "type": "address"
        },
        {
          "indexed": true,
          "internalType": "address",
          "name": "sender",
          "type": "address"
        }
      ],
      "name": "RoleRevoked",
      "type": "event"
    },
    {
      "anonymous": false,
      "inputs": [
        {
          "indexed": false,
          "internalType": "address",
          "name": "account",
          "type": "address"
        }
      ],
      "name": "Unpaused",
      "type": "event"
    },
    {
      "inputs": [],
      "name": "ADMIN_ROLE",
      "outputs": [
        {
          "internalType": "bytes32",
          "name": "",
          "type": "bytes32"
        }
      ],
      "stateMutability": "view",
      "type": "function"
    },
    {
      "inputs": [],
      "name": "DEFAULT_ADMIN_ROLE",
      "outputs": [
        {
          "internalType": "bytes32",
          "name": "",
          "type": "bytes32"
        }
      ],
      "stateMutability": "view",
      "type": "function"
    },
    {
      "inputs": [],
      "name": "GUARDIAN_ROLE",
      "outputs": [
        {
          "internalType": "bytes32",
          "name": "",
          "type": "bytes32"
        }
      ],
      "stateMutability": "view",
      "type": "function"
    },
    {
      "inputs": [],
      "name": "OPERATOR_ROLE",
      "outputs": [
        {
          "internalType": "bytes32",
          "name": "",
          "type": "bytes32"
        }
      ],
      "stateMutability": "view",
      "type": "function"
    },
    {
      "inputs": [
        {
          "internalType": "address",
          "name": "user",
          "type": "address"
        },
        {
          "internalType": "bytes32",
          "name": "txHash",
          "type": "bytes32"
        },
        {
          "internalType": "string",
          "name": "cardId",
          "type": "string"
        }
      ],
      "name": "confirmCardGeneration",
      "outputs": [],
      "stateMutability": "nonpayable",
      "type": "function"
    },
    {
      "inputs": [],
      "name": "getBalance",
      "outputs": [
        {
          "internalType": "uint256",
          "name": "",
          "type": "uint256"
        }
      ],
      "stateMutability": "view",
      "type": "function"
    },
    {
      "inputs": [],
      "name": "getBalances",
      "outputs": [
        {
          "internalType": "uint256",
          "name": "ethBalance",
          "type": "uint256"
        },
        {
          "internalType": "uint256",
          "name": "sovBalance",
          "type": "uint256"
        }
      ],
      "stateMutability": "view",
      "type": "function"
    },
    {
      "inputs": [
        {
          "internalType": "bytes32",
          "name": "role",
          "type": "bytes32"
        }
      ],
      "name": "getRoleAdmin",
      "outputs": [
        {
          "internalType": "bytes32",
          "name": "",
          "type": "bytes32"
        }
      ],
      "stateMutability": "view",
      "type": "function"
    },
    {
      "inputs": [],
      "name": "getSovrBalance",
      "outputs": [
        {
          "internalType": "uint256",
          "name": "",
          "type": "uint256"
        }
      ],
      "stateMutability": "view",
      "type": "function"
    },
    {
      "inputs": [
        {
          "internalType": "address",
          "name": "user",
          "type": "address"
        }
      ],
      "name": "getUserNonce",
      "outputs": [
        {
          "internalType": "uint256",
          "name": "",
          "type": "uint256"
        }
      ],
      "stateMutability": "view",
      "type": "function"
    },
    {
      "inputs": [
        {
          "internalType": "bytes32",
          "name": "role",
          "type": "bytes32"
        },
        {
          "internalType": "address",
          "name": "account",
          "type": "address"
        }
      ],
      "name": "grantRole",
      "outputs": [],
      "stateMutability": "nonpayable",
      "type": "function"
    },
    {
      "inputs": [
        {
          "internalType": "bytes32",
          "name": "role",
          "type": "bytes32"
        },
        {
          "internalType": "address",
          "name": "account",
          "type": "address"
        }
      ],
      "name": "hasRole",
      "outputs": [
        {
          "internalType": "bool",
          "name": "",
          "type": "bool"
        }
      ],
      "stateMutability": "view",
      "type": "function"
    },
    {
      "inputs": [
        {
          "internalType": "bytes32",
          "name": "txHash",
          "type": "bytes32"
        }
      ],
      "name": "isProcessed",
      "outputs": [
        {
          "internalType": "bool",
          "name": "",
          "type": "bool"
        }
      ],
      "stateMutability": "view",
      "type": "function"
    },
    {
      "inputs": [],
      "name": "minPaymentAmount",
      "outputs": [
        {
          "internalType": "uint256",
          "name": "",
          "type": "uint256"
        }
      ],
      "stateMutability": "view",
      "type": "function"
    },
    {
      "inputs": [],
      "name": "minSovrPaymentAmount",
      "outputs": [
        {
          "internalType": "uint256",
          "name": "",
          "type": "uint256"
        }
      ],
      "stateMutability": "view",
      "type": "function"
    },
    {
      "inputs": [],
      "name": "pause",
      "outputs": [],
      "stateMutability": "nonpayable",
      "type": "function"
    },
    {
      "inputs": [],
      "name": "paused",
      "outputs": [
        {
          "internalType": "bool",
          "name": "",
          "type": "bool"
        }
      ],
      "stateMutability": "view",
      "type": "function"
    },
    {
      "inputs": [
        {
          "internalType": "bytes32",
          "name": "",
          "type": "bytes32"
        }
      ],
      "name": "processedTransactions",
      "outputs": [
        {
          "internalType": "bool",
          "name": "",
          "type": "bool"
        }
      ],
      "stateMutability": "view",
      "type": "function"
    },
    {
      "inputs": [],
      "name": "purchaseCard",
      "outputs": [],
      "stateMutability": "payable",
      "type": "function"
    },
    {
      "inputs": [
        {
          "internalType": "uint256",
          "name": "amount",
          "type": "uint256"
        }
      ],
      "name": "purchaseCardWithSovr",
      "outputs": [],
      "stateMutability": "nonpayable",
      "type": "function"
    },
    {
      "inputs": [
        {
          "internalType": "bytes32",
          "name": "role",
          "type": "bytes32"
        },
        {
          "internalType": "address",
          "name": "callerConfirmation",
          "type": "address"
        }
      ],
      "name": "renounceRole",
      "outputs": [],
      "stateMutability": "nonpayable",
      "type": "function"
    },
    {
      "inputs": [
        {
          "internalType": "bytes32",
          "name": "role",
          "type": "bytes32"
        },
        {
          "internalType": "address",
          "name": "account",
          "type": "address"
        }
      ],
      "name": "revokeRole",
      "outputs": [],
      "stateMutability": "nonpayable",
      "type": "function"
    },
    {
      "inputs": [],
      "name": "sovToken",
      "outputs": [
        {
          "internalType": "contract IERC20",
          "name": "",
          "type": "address"
        }
      ],
      "stateMutability": "view",
      "type": "function"
    },
    {
      "inputs": [
        {
          "internalType": "bytes4",
          "name": "interfaceId",
          "type": "bytes4"
        }
      ],
      "name": "supportsInterface",
      "outputs": [
        {
          "internalType": "bool",
          "name": "",
          "type": "bool"
        }
      ],
      "stateMutability": "view",
      "type": "function"
    },
    {
      "inputs": [],
      "name": "unpause",
      "outputs": [],
      "stateMutability": "nonpayable",
      "type": "function"
    },
    {
      "inputs": [
        {
          "internalType": "uint256",
          "name": "newMinEth",
          "type": "uint256"
        },
        {
          "internalType": "uint256",
          "name": "newMinSovr",
          "type": "uint256"
        }
      ],
      "name": "updateMinimumAmounts",
      "outputs": [],
      "stateMutability": "nonpayable",
      "type": "function"
    },
    {
      "inputs": [
        {
          "internalType": "address",
          "name": "",
          "type": "address"
        }
      ],
      "name": "userNonces",
      "outputs": [
        {
          "internalType": "uint256",
          "name": "",
          "type": "uint256"
        }
      ],
      "stateMutability": "view",
      "type": "function"
    },
    {
      "inputs": [
        {
          "internalType": "address payable",
          "name": "to",
          "type": "address"
        },
        {
          "internalType": "uint256",
          "name": "amount",
          "type": "uint256"
        },
        {
          "internalType": "string",
          "name": "currency",
          "type": "string"
        }
      ],
      "name": "withdrawFunds",
      "outputs": [],
      "stateMutability": "nonpayable",
      "type": "function"
    }
  ],
  "bytecode": "0x60a0604052655af3107a4000600355670de0b6b3a76400006004553480156200002757600080fd5b5060405162001af238038062001af28339810160408190526200004a91620001dc565b600180556002805460ff191690556001600160a01b038116620000b35760405162461bcd60e51b815260206004820152601a60248201527f496e76616c696420534f565220746f6b656e2061646472657373000000000000604482015260640160405180910390fd5b620000c06000336200012d565b50620000ed7fa49807205ce4d355092ef5a8a18f56e8913cf4a201fbe287825b095693c21775336200012d565b506200011a7f97667070c54ef182b0f5858b034beac1b6f3089aa2d3188bb1e8929f4fa9b929336200012d565b506001600160a01b03166080526200020e565b6000828152602081815260408083206001600160a01b038516845290915281205460ff16620001d2576000838152602081815260408083206001600160a01b03861684529091529020805460ff19166001179055620001893390565b6001600160a01b0316826001600160a01b0316847f2f8788117e7eff1d82e926ec794901d17c78024a50270940304540a733656f0d60405160405180910390a4506001620001d6565b5060005b92915050565b600060208284031215620001ef57600080fd5b81516001600160a01b03811681146200020757600080fd5b9392505050565b6080516118a56200024d6000396000818161047c015281816105c6015281816108e301528181610d1f01528181610df1015261106501526118a56000f3fe6080604052600436106101b65760003560e01c8063694e3dd9116100ec578063a217fddf1161008a578063b9c9453111610064578063b9c9453114610531578063ca0d3a5014610539578063d547741f1461054e578063f5b541a61461056e57600080fd5b8063a217fddf146104d6578063a40d32fe146104eb578063ac2e49361461050157600080fd5b80638750e2f2116100c65780638750e2f21461042a57806391d148541461044a57806398afd2941461046a5780639b81e17e146104b657600080fd5b8063694e3dd9146103dd57806375b238fc146103f35780638456cb591461041557600080fd5b806324ea54f41161015957806336568abe1161013357806336568abe1461035a5780633f4ba83a1461037a5780635c975abb1461038f5780636834e3a8146103a757600080fd5b806324ea54f4146102d95780632f2ff15d1461030d5780632f7801f41461032d57600080fd5b80630bfd4d2a116101955780630bfd4d2a1461023c57806311c168961461025c57806312065fe01461028c578063248a9ca3146102a957600080fd5b8062113e08146101bb578063012df0fe146101ea57806301ffc9a71461020c575b600080fd5b3480156101c757600080fd5b506101d06105a2565b604080519283526020830191909152015b60405180910390f35b3480156101f657600080fd5b5061020a610205366004611578565b610639565b005b34801561021857600080fd5b5061022c61022736600461159a565b610762565b60405190151581526020016101e1565b34801561024857600080fd5b5061020a6102573660046115c4565b610799565b34801561026857600080fd5b5061022c6102773660046115c4565b60009081526006602052604090205460ff1690565b34801561029857600080fd5b50475b6040519081526020016101e1565b3480156102b557600080fd5b5061029b6102c43660046115c4565b60009081526020819052604090206001015490565b3480156102e557600080fd5b5061029b7f55435dd261a4b9b3364963f7738a7a662ad9c84396d64be3365284bb7f0a504181565b34801561031957600080fd5b5061020a6103283660046115f2565b610979565b34801561033957600080fd5b5061029b610348366004611622565b60056020526000908152604090205481565b34801561036657600080fd5b5061020a6103753660046115f2565b6109a4565b34801561038657600080fd5b5061020a6109dc565b34801561039b57600080fd5b5060025460ff1661022c565b3480156103b357600080fd5b5061029b6103c2366004611622565b6001600160a01b031660009081526005602052604090205490565b3480156103e957600080fd5b5061029b60045481565b3480156103ff57600080fd5b5061029b60008051602061185083398151915281565b34801561042157600080fd5b5061020a6109fc565b34801561043657600080fd5b5061020a6104453660046116e2565b610a2e565b34801561045657600080fd5b5061022c6104653660046115f2565b610af8565b34801561047657600080fd5b5061049e7f000000000000000000000000000000000000000000000000000000000000000081565b6040516001600160a01b0390911681526020016101e1565b3480156104c257600080fd5b5061020a6104d13660046116e2565b610b21565b3480156104e257600080fd5b5061029b600081565b3480156104f757600080fd5b5061029b60035481565b34801561050d57600080fd5b5061022c61051c3660046115c4565b60066020526000908152604090205460ff1681565b61020a610ea3565b34801561054557600080fd5b5061029b61104d565b34801561055a57600080fd5b5061020a6105693660046115f2565b6110dd565b34801561057a57600080fd5b5061029b7f97667070c54ef182b0f5858b034beac1b6f3089aa2d3188bb1e8929f4fa9b92981565b6040516370a0823160e01b8152306004820152600090819047906001600160a01b037f000000000000000000000000000000000000000000000000000000000000000016906370a0823190602401602060405180830381865afa15801561060d573d6000803e3d6000fd5b505050506040513d601f19601f82011682018060405250810190610631919061173b565b915091509091565b60008051602061185083398151915261065181611102565b600083116106b25760405162461bcd60e51b8152602060048201526024808201527f45544820616d6f756e74206d7573742062652067726561746572207468616e206044820152637a65726f60e01b60648201526084015b60405180910390fd5b600082116107105760405162461bcd60e51b815260206004820152602560248201527f534f565220616d6f756e74206d7573742062652067726561746572207468616e604482015264207a65726f60d81b60648201526084016106a9565b60038054600480549286905584905560408051828152602081018790529192917fe9df1edb86fd998ef8253f5fec730d92f458eb214588e2f4a00fd58ccbbeffc8910160405180910390a15050505050565b60006001600160e01b03198216637965db0b60e01b148061079357506301ffc9a760e01b6001600160e01b03198316145b92915050565b6107a161110c565b6107a9611136565b6004548110156108075760405162461bcd60e51b8152602060048201526024808201527f534f5652207061796d656e742062656c6f77206d696e696d756d2074687265736044820152631a1bdb1960e21b60648201526084016106a9565b33600090815260056020526040812080549182919061082583611754565b91905055506000338383424660405160200161084595949392919061177b565b60408051601f1981840301815291815281516020928301206000818152600690935291205490915060ff16156108bd5760405162461bcd60e51b815260206004820152601d60248201527f5472616e73616374696f6e20616c72656164792070726f63657373656400000060448201526064016106a9565b6000818152600660205260409020805460ff1916600117905561090b6001600160a01b037f00000000000000000000000000000000000000000000000000000000000000001633308661115a565b604080518481524260208201529081018390526080606082018190526004908201526329a7ab2960e11b60a0820152819033907f41cc72d383ea1144f34e8cc19056ad3d2150845ea26461f5a0368b9e5ebdadf19060c00160405180910390a3505061097660018055565b50565b60008281526020819052604090206001015461099481611102565b61099e83836111c1565b50505050565b6001600160a01b03811633146109cd5760405163334bd91960e11b815260040160405180910390fd5b6109d78282611253565b505050565b6000805160206118508339815191526109f481611102565b6109766112be565b7f55435dd261a4b9b3364963f7738a7a662ad9c84396d64be3365284bb7f0a5041610a2681611102565b610976611310565b7f97667070c54ef182b0f5858b034beac1b6f3089aa2d3188bb1e8929f4fa9b929610a5881611102565b60008381526006602052604090205460ff16610aae5760405162461bcd60e51b8152602060048201526015602482015274151c985b9cd858dd1a5bdb881b9bdd08199bdd5b99605a1b60448201526064016106a9565b82846001600160a01b03167fa717f77b49ed7658b33eb3dfd416ebb61ba72fe1008c5960aa6b074850798e8e8442604051610aea9291906117d6565b60405180910390a350505050565b6000918252602082815260408084206001600160a01b0393909316845291905290205460ff1690565b600080516020611850833981519152610b3981611102565b610b4161110c565b6001600160a01b038416610b895760405162461bcd60e51b815260206004820152600f60248201526e496e76616c6964206164647265737360881b60448201526064016106a9565b60408051808201909152600381526208aa8960eb1b6020918201528251908301207f55514145c7ef4e1948f87e0eb4d28d3e34763f4d4cdf3bc449800860a9d0a00c01610cbf5747831115610c205760405162461bcd60e51b815260206004820152601860248201527f496e73756666696369656e74204554482062616c616e6365000000000000000060448201526064016106a9565b6000846001600160a01b03168460405160006040518083038185875af1925050503d8060008114610c6d576040519150601f19603f3d011682016040523d82523d6000602084013e610c72565b606091505b5050905080610cb95760405162461bcd60e51b8152602060048201526013602482015272115512081d1c985b9cd9995c8819985a5b1959606a1b60448201526064016106a9565b50610e57565b60408051808201909152600481526329a7ab2960e11b6020918201528251908301207fc25fcf345b0ee1ddfe71a1e0f5d3fd64c146f7d194c81e4801f2686d3a647c8c01610e18576040516370a0823160e01b81523060048201526000907f00000000000000000000000000000000000000000000000000000000000000006001600160a01b0316906370a0823190602401602060405180830381865afa158015610d6e573d6000803e3d6000fd5b505050506040513d601f19601f82011682018060405250810190610d92919061173b565b905080841115610de45760405162461bcd60e51b815260206004820152601960248201527f496e73756666696369656e7420534f56522062616c616e63650000000000000060448201526064016106a9565b610cb96001600160a01b037f000000000000000000000000000000000000000000000000000000000000000016868661134d565b60405162461bcd60e51b8152602060048201526014602482015273556e737570706f727465642063757272656e637960601b60448201526064016106a9565b836001600160a01b03167feaff4b37086828766ad3268786972c0cd24259d4c87a80f9d3963a3c3d999b0d84604051610e9291815260200190565b60405180910390a261099e60018055565b610eab61110c565b610eb3611136565b600354341015610f055760405162461bcd60e51b815260206004820152601f60248201527f5061796d656e742062656c6f77206d696e696d756d207468726573686f6c640060448201526064016106a9565b336000908152600560205260408120805491829190610f2383611754565b919050555060003334834246604051602001610f4395949392919061177b565b60408051601f1981840301815291815281516020928301206000818152600690935291205490915060ff1615610fbb5760405162461bcd60e51b815260206004820152601d60248201527f5472616e73616374696f6e20616c72656164792070726f63657373656400000060448201526064016106a9565b60008181526006602052604090819020805460ff1916600117905551819033907f41cc72d383ea1144f34e8cc19056ad3d2150845ea26461f5a0368b9e5ebdadf19061103890349042908890928352602083019190915260408201526080606082018190526003908201526208aa8960eb1b60a082015260c00190565b60405180910390a3505061104b60018055565b565b6040516370a0823160e01b81523060048201526000907f00000000000000000000000000000000000000000000000000000000000000006001600160a01b0316906370a0823190602401602060405180830381865afa1580156110b4573d6000803e3d6000fd5b505050506040513d601f19601f820116820180604052508101906110d8919061173b565b905090565b6000828152602081905260409020600101546110f881611102565b61099e8383611253565b610976813361137e565b60026001540361112f57604051633ee5aeb560e01b815260040160405180910390fd5b6002600155565b60025460ff161561104b5760405163d93c066560e01b815260040160405180910390fd5b6040516001600160a01b03848116602483015283811660448301526064820183905261099e9186918216906323b872dd906084015b604051602081830303815290604052915060e01b6020820180516001600160e01b0383818316178352505050506113bb565b60006111cd8383610af8565b61124b576000838152602081815260408083206001600160a01b03861684529091529020805460ff191660011790556112033390565b6001600160a01b0316826001600160a01b0316847f2f8788117e7eff1d82e926ec794901d17c78024a50270940304540a733656f0d60405160405180910390a4506001610793565b506000610793565b600061125f8383610af8565b1561124b576000838152602081815260408083206001600160a01b0386168085529252808320805460ff1916905551339286917ff6391f5c32d9c69d2a47ea670b442974b53935d1edc7fd64eb21e047a839171b9190a4506001610793565b6112c661141e565b6002805460ff191690557f5db9ee0a495bf2e6ff9c91a7834c1ba4fdd244a5e8aa4e537bd38aeae4b073aa335b6040516001600160a01b03909116815260200160405180910390a1565b611318611136565b6002805460ff191660011790557f62e78cea01bee320cd4e420270b5ea74000d11b0c9f74754ebdbfc544b05a2586112f33390565b6040516001600160a01b038381166024830152604482018390526109d791859182169063a9059cbb9060640161118f565b6113888282610af8565b6113b75760405163e2517d3f60e01b81526001600160a01b0382166004820152602481018390526044016106a9565b5050565b60006113d06001600160a01b03841683611441565b905080516000141580156113f55750808060200190518101906113f39190611811565b155b156109d757604051635274afe760e01b81526001600160a01b03841660048201526024016106a9565b60025460ff1661104b57604051638dfc202b60e01b815260040160405180910390fd5b606061144f83836000611456565b9392505050565b60608147101561147b5760405163cd78605960e01b81523060048201526024016106a9565b600080856001600160a01b031684866040516114979190611833565b60006040518083038185875af1925050503d80600081146114d4576040519150601f19603f3d011682016040523d82523d6000602084013e6114d9565b606091505b50915091506114e98683836114f3565b9695505050505050565b606082611508576115038261154f565b61144f565b815115801561151f57506001600160a01b0384163b155b1561154857604051639996b31560e01b81526001600160a01b03851660048201526024016106a9565b508061144f565b80511561155f5780518082602001fd5b604051630a12f52160e11b815260040160405180910390fd5b6000806040838503121561158b57600080fd5b50508035926020909101359150565b6000602082840312156115ac57600080fd5b81356001600160e01b03198116811461144f57600080fd5b6000602082840312156115d657600080fd5b5035919050565b6001600160a01b038116811461097657600080fd5b6000806040838503121561160557600080fd5b823591506020830135611617816115dd565b809150509250929050565b60006020828403121561163457600080fd5b813561144f816115dd565b634e487b7160e01b600052604160045260246000fd5b600082601f83011261166657600080fd5b813567ffffffffffffffff808211156116815761168161163f565b604051601f8301601f19908116603f011681019082821181831017156116a9576116a961163f565b816040528381528660208588010111156116c257600080fd5b836020870160208301376000602085830101528094505050505092915050565b6000806000606084860312156116f757600080fd5b8335611702816115dd565b925060208401359150604084013567ffffffffffffffff81111561172557600080fd5b61173186828701611655565b9150509250925092565b60006020828403121561174d57600080fd5b5051919050565b60006001820161177457634e487b7160e01b600052601160045260246000fd5b5060010190565b60609590951b6bffffffffffffffffffffffff19168552601485019390935260348401919091526054830152607482015260940190565b60005b838110156117cd5781810151838201526020016117b5565b50506000910152565b60408152600083518060408401526117f58160608501602088016117b2565b602083019390935250601f91909101601f191601606001919050565b60006020828403121561182357600080fd5b8151801515811461144f57600080fd5b600082516118458184602087016117b2565b919091019291505056fea49807205ce4d355092ef5a8a18f56e8913cf4a201fbe287825b095693c21775a2646970667358221220f73b0744da9684b07878e644f2c1e5152a6162b8bbcf1d68820c67335815b3a464736f6c63430008140033",
  "linkReferences": {},
  "deployedLinkReferences": {}
}